:020000041000EA
:1000000000B5324B212058609868022188439860DF
:10001000D860186158612E4B002199600221596106
:100020000121F02299502B49196001219960352056
:1000300000F044F80222904214D00621196600F024
:1000400034F8196E01211966002018661A6600F04E
:100050002CF8196E196E196E052000F02FF8012189
:100060000842F9D1002199601B49196000215960AB
:100070001A491B48016001219960EB211966A021F2
:10008000196600F012F800219960164914480160C1
:100090000121996001BC002800D000471248134993
:1000A000086003C880F30888084703B5996A0420EC
:1000B0000142FBD001200142F8D103BD02B5186610
:1000C0001866FFF7F2FF186E186E02BD00000240BE
:1000D000000000180000070000035F00212200005C
:1000E000F4000018222000A00001001008ED00E03C
:1000F00000000000000000000000000074B24E7A12
:1001000000200420F7010010C3010010C5010010F9
:10011000C1010010C1010010C1010010C101001097
:10012000C1010010C1010010C1010010C701001081
:10013000C1010010C1010010C9010010CB01001065
:10014000CD010010CD010010CD010010CD01001037
:10015000CD010010CD010010CD010010CD01001027
:10016000CD010010CD010010CD010010CD01001017
:10017000CD010010CD010010CD010010CD01001007
:10018000CD010010CD010010CD010010CD010010F7
:10019000CD010010CD010010CD010010CD010010E7
:1001A000CD010010CD010010CD010010CD010010D7
:1001B000CD010010CD010010CD010010CD010010C7
:1001C00000BE00BE00BE00BE00BE00BEEFF3058054
:1001D000103800BEF2EB8871CC570010F4570010B5
:1001E0003402001090A31AE700201F49086006C8D7
:1001F00081F3088810471D48006800282FD10DA4FE
:100200000ECC002902D000F012F8F9E71849194A7B
:10021000002000E001C19142FCD1174988471749ED
:1002200088471749884700BEFDE701C901C29A42C5
:10023000FBD37047F4570010C0000020C40D00200D
:10024000F86400100000042000000420F86400108E
:10025000001004200010042000000000704709482E
:1002600003F084FA0047000008ED00E0000000D031
:10027000C80D002018150020B91F001055030010EC
:10028000E12000105756000006005250ABB36053F7
:100290004057001006005250861C030250570010B1
:1002A000060052505422A29D58570010050052508B
:1002B000DE65F468F8640010F8B5C0460448054BE4
:1002C00010B5834203D0044B002B00D0984710BDDB
:1002D000C40D0020C40D002000000000064807499E
:1002E000091A8B10C90FC91810B5491003D0044B57
:1002F000002B00D0984710BDC40D0020C40D002075
:100300000000000010B5074C2378002B09D1FFF73F
:10031000D5FF054B002B02D0044800E000BF0123AD
:10032000237010BD3011002000000000B8540010F0
:10033000054B10B5002B03D00449054800E000BF71
:10034000FFF7CCFF10BDC0460000000034110020B4
:10035000B854001030B583B004F018FA192000F03A
:1003600029FBD02380221B0692045A622449254887
:1003700004F064FB03211B2000F0F2FA03211A2091
:1003800000F0EEFA002201211B2000F001FB002208
:1003900001211A2000F0FCFA00F0AAF800F08EF813
:1003A000194CA379002B02D16379012B1FD00920AE
:1003B00004F096F8051E20D000F080F87F236278C4
:1003C0002078A178184013403F220A406370A27041
:1003D0000E4920700090280003F092F9280000F0E8
:1003E0007DFA280004F08EF8012003B030BD237997
:1003F000012BDCD100F00CF8D9E70020F5E7C0466E
:10040000A08601005805002098010020B854001073
:10041000A02370B5002684B0214D03ACDB012380FE
:100420002200022368212800009604F031FB1D4BB6
:1004300022002380682102232800009604F028FB74
:10044000194B22002380682102232800009604F023
:100450001FFB164B220023806821022328000096F0
:1004600004F016FB124B220023806821022328008F
:10047000009604F00DFB0F4B22002380682102231D
:100480002800009604F004FB0B4B22002380682117
:1004900002232800009604F0FBFA04B070BDC046A9
:1004A0005805002001590000022300000304000049
:1004B0000405000005030000062100000F2230B5EE
:1004C0000123002585B0084C6A441570682100930B
:1004D000200004F0DDFA072368212000034A00957C
:1004E00004F03EFB05B030BD580500209801002007
:1004F000B04BF0B557464546DE4698464E46AE4BA5
:10050000E0B59A460125474689B053461B7899467F
:1005100053465E789C78DB784946019353465A7976
:10052000187990469A7902909446DA7913000A1164
:1005300039792A400A433111294049000A432111DF
:10054000294089000A430199039309112940C900F0
:100550000A430111294009010A4341460911294072
:1005600049010A4361460911294089010A431911C9
:100570002940C9010A43494604924A1179792A401F
:100580000A437111294049000A4361112940890039
:100590000A43019949112940C9000A4341112940E0
:1005A00009010A4341464911294049010A4361466C
:1005B0004911294089010A4359112940C9010A43B7
:1005C000494605928A11B9792A400A43B111294056
:1005D00049000A43A111294089000A430199891160
:1005E0002940C9000A438111294009010A434146B3
:1005F0008911294049010A4361468911294089012D
:100600000A4399112940C9010A43069219007F2221
:1006100091434A46D2110A43F9790A43F11149003C
:100620000A43E11189000A430199C911C9000A432B
:10063000C11109010A434146C91149010A436146F2
:10064000C91189010A434946294007920A003978AD
:1006500011432A003240520011432A0022409200E6
:1006600011438B462A0001990A405946D200114392
:100670002A0002401201114342462A40520111430E
:1006800062462A40920111431A002A40D2011143C6
:10069000080049464A1079782A400A4371102940D7
:1006A00049000A436110294089000A430199491011
:1006B0002940C9000A4302994910294009010A4307
:1006C00041464910294049010A43614649102940E1
:1006D00089010A4359102940C9010A430100120245
:1006E00011438B4649468A10B9782A400A43B11013
:1006F000294049000A43A110294089000A43019971
:10070000F61089102940C9000A4302992E40891029
:10071000294009010A4341468910294049010A43F9
:1007200061468910294089010A4399102940C9016D
:1007300011434A46FB78D2102A401A43019BE41029
:10074000D810029B76002C4016432840A200DB10F4
:100750003243C0002B4010431B0103434046C210EC
:1007600060462A4052011343C2102A4092011343AB
:10077000039A0904D2102A40D2011A435B4612069A
:100780000B4313433B6008239C46049A0B4B3A717E
:10079000059AE2447A71069ABA71079AFA71083793
:1007A000BB4200D0B1E609B0F0BCBB46B246A94698
:1007B000A046F0BD94110020A00100208C14002060
:1007C000414BF0B54546984600235746DE464E4617
:1007D00099463E4BE0B59A46012385B09B463C4C7A
:1007E00003AF2FE0092003F07BFE051E63D02279C2
:1007F000E378617912021343A279090412060B43CC
:1008000013434360E379227803724346617812020E
:10081000090416430E4319780023A27812061643E2
:100820000660020000935046093304F031F92800B5
:1008300003F068FE01239C46E1444B46E044083443
:10084000082B31D05B464A460E261342CAD0C0233D
:100850005B0100253B8043463A001978504602234D
:10086000009504F015F91B4B3A003B804346504677
:1008700019780223009504F00BF9174B3A003B80DE
:100880004346504619780223009504F001F9862367
:100890005B003B8043463A0019785046022300959E
:1008A00004F0F6F80D3E9DE705B0F0BCBB46B2463D
:1008B000A946A046F0BD43460022197800900923BE
:1008C000504604F0E5F8B5E79804002058050020EC
:1008D000F00E00200D0E0000191F0000F8B50023D7
:1008E0004746CE461B4C80B523606360A360E3603F
:1008F00023616361A361E36123626362A362E362D4
:1009000023636363A363E363134B06009946134BAE
:1009100000250127984605E043440CCB2260636024
:1009200001350834300004F047FCA8420BD9072DEC
:10093000F6DC735D203BDB002F42EDD14B440CCB4A
:1009400022606360ECE7FFF73BFFC0BCB946B046EE
:10095000F8BDC046F00E0020A00100209411002038
:10096000094A10B594464024830063441A68C000C5
:100970006240803414408022520113431C60034BB8
:100980009C466044416010BD04C0014000400140ED
:10099000074B80009C4660440368C90092000A43EC
:1009A0005A400C231A4080235B0103431A607047AE
:1009B00004C001400123D022834012069362936158
:1009C000094A40219446830063441A68C0004A40A3
:1009D000803111408022520113431960034B9C4621
:1009E000052360444360704704C00140004001405B
:1009F000024B18688007C00F7047C04600C0064011
:100A000070B5EFF3108C72B60D4D2B68002BFCD037
:100A1000BFF35F8F0724CB08C618C05C01230C40CE
:100A2000A3401C000440034207D118433070BFF3B9
:100A30005F8F2C608CF3108870BD100001F054FBA8
:100A40002C0100D00021044B044ABFF35F8F02C386
:100A50009342FAD17047C046000100D0800100D017
:100A6000044A1078431CDBB2172B00D910231370F3
:100A70007047C046A004002001238340002904D011
:100A8000034A1360034A13607047034A1360FBE78D
:100A900080E200E000E100E080E100E0024B103085
:100AA0009B688000C058704700ED00E070B50D00F5
:100AB000EFF3108672B60F4A1368002BFCD0BFF319
:100AC0005F8F0D4B10309B6884001B590B4A93427B
:100AD00003D09D4201D001F01FFB074B9B681D51C5
:100AE000BFF35F8FBFF35F8F0022024B1A6086F364
:100AF000108870BD240100D000ED00E0CD01001091
:100B0000F0B5DE4657464E464546E0B50C0083B08C
:100B1000EFF3108872B65D4A1368002BFCD0BFF368
:100B20005F8F5B4B5B499A68030010339F00D55978
:100B30008D4239D0A5424AD0574EAA1B2F2A33D80E
:100B400001229246824091464846544A126810401B
:100B500001904846524A1060BFF35F8FEFF3058261
:100B60009346002A35D0934201D001F0D5FA2A00ED
:100B700053469A439068844208D175E04B005B1855
:100B80009B00F3189868A04234D01A0006215156F1
:100B90000029F3DA844253D0019B002B26D04A4629
:100BA000404B1A603D4B1A60394B9B68DD51BFF3D7
:100BB0005F8FBFF35F8F0022344B1A6088F3108879
:100BC00003B0F0BCBB46B246A946A046F0BD0D003E
:100BD000EAE72A0053469A4390688442D6D1062019
:100BE00010561300002809DA0D0031E04A462C4B5C
:100BF0001A60D9E706201856002822DB4200111897
:100C0000890074188A46A1689960E179D971062132
:100C100061569971002925DBA488F11A6405241511
:100C200054440919E0240905490D240221439980FF
:100C300013181D4A9B001178F31899711070ABE7D7
:100C400013005946002914D1FF3191711749918041
:100C500015490A789A71164A9B1B5B415A43120D3B
:100C60000A7099E71349E2E706201056130000289E
:100C7000C4DA114A1149D21A083A5002400D014310
:100C800099800F4952080A43DA8085E7240100D091
:100C900000ED00E0CD010010A404002000E100E020
:100CA00080E100E080E200E01515002001BDFFFFBB
:100CB000AAAA000001BD0000DE04002000F0FFFF32
:100CC00000F8FFFF70B5EFF3058101240443EFF353
:100CD000108C72B6214A1368002BFCD0BFF35F8FD3
:100CE0001F4B05001F4AED1A6D416A43120D1E4D40
:100CF0008900AE6852B27658A6421CD006215956D9
:100D000091421CD012215956914222D01E2159568F
:100D1000914220D02A2159560324914210D0134BDE
:100D200019781A708171BFF35F8F00220B4B1A6024
:100D30008CF3108870BDAB680D4C5C50EFE700245D
:100D40006100091989005B18FF219971094999808F
:100D5000E5E70124F4E70224F2E7C046240100D0CD
:100D6000A4040020AAAA000000ED00E01515002050
:100D7000CD01001001BDFFFF054B064A1360064A76
:100D8000136053609360D360136153619361704744
:100D90008080808000E400E004E400E0024B9C4698
:100DA00061448900016070474000003410B50400C0
:100DB000FFF756FE01002000FFF7F0FFFF2323712D
:100DC000BFF35F8F10BDC04610B50400FFF748FEAB
:100DD00001002000FFF7E2FFFF23A380BFF35F8F36
:100DE00010BDC04683680B4810B584466144624418
:100DF0001201090159189B185C684A680120944245
:100E000001D802D00020C0B210BD1A680B689A4207
:100E1000F9D8F7E7FFFFFF0F0A4B1968EFF31080CF
:100E200072B60A68002AFCD0BFF35F8F1B68BFF35D
:100E30005F8F00221A6080F3108840BF00200021DD
:100E40007047C046F8140020F8B5574645464E4650
:100E5000DE46E0B598460CAB1C780DAB1B7807005E
:100E600091469A460568002C5ED1AC7B002C3BD0A5
:100E7000660029683619033E89194B78AB73002B3D
:100E800000D1EB7300238B704B700B702D4BE2186D
:100E9000BB6812019B184A461A6042465A600A9A79
:100EA0009A600B9ADA6000238B704B700B706B7B2F
:100EB0009B46002B2BD022005946A8686B689847A8
:100EC0002A68002816D05B4658465B005B4496199A
:100ED000033BB070D118D35C002B00D073705B461D
:100EE0000C706B735C4513D0F0BCBB46B246A94690
:100EF000A046F8BD5B465B005B44033BD3189C7087
:100F00009119925D002A00D05A705B460B706C7389
:100F10004A464346387D00F055FB051E0AD10E9B1C
:100F2000002BE1D01D70DFE7660029683619033E0B
:100F30008919ABE75346002BF1D12100386800F046
:100F400065FDECE7FFFFFF0FF0B5DE4657464E4666
:100F500045460023E0B58BB00893684B8200D45817
:100F600000239B46099000F0A9FA02000B0060687C
:100F7000EFF3108A72B6564601680029FCD0B246DB
:100F8000BFF35F8F21684F7B8C46002F2ED0A56862
:100F90005B49A946791809018944494608684968A6
:100FA00005000E00AD1A9E41002E5FDD02000B0011
:100FB000099800F007FB00230022994600230692BF
:100FC0000793002398466368BFF35F8F5A461A6001
:100FD0008AF310884346002B12D10028C3D10BB0EE
:100FE000F0BCBB46B246A946A046F0BD0023002295
:100FF0009946002306920793002300209846E2E7D3
:10100000089B494618023843C047626805000E0035
:10101000EFF3108A72B61368002BFCD0BFF35F8F1A
:10102000002E41DB2B00334302D02369002B56D125
:101030002368D97B002905D01A6848004118521846
:10104000033A57709A7B002A00D19F73DF73E268DE
:10105000013FD35D0133D3555B4623616368BFF322
:101060005F8F5A461A608AF310887CE7002E02D1FF
:10107000002D00D09AE70021604600F045FC4B4669
:101080001A685B68069207934B469B6898464B46E6
:10109000DB689946E368DB19013B1B7808931B0268
:1010A0000343236100208EE72369002BC0D0069AFA
:1010B000079B8021521BB34109068B4202D30122B8
:1010C000104B524200210491013103914946019194
:1010D0004146200002970091FFF7B6FEBCE700F002
:1010E000EDF92A00330012184B41802109068B428A
:1010F000E8D30122034B5242E4E7C046E414002047
:10110000FFFFFF0FFFFFFF7F10B5144C6368002B3C
:1011100004D00A211248FFF741FE10BD2300114AF6
:101120001021206800F006FB032000F0BBF903202B
:1011300000F0B0FA03200C4900F0FEF9FFF790FC34
:101140000A4B9C4603232375D0231B061B6860446F
:101150006375074B80006060DC60DAE7EC04002018
:10116000F8140020E50D0010490F00104000003475
:10117000E4140020F0B557464E464546DE46E0B53D
:1011800085B0019310AB1B780600039300239A46A9
:10119000984600927268EFF3108B72B61368002BBA
:1011A000FCD0BFF35F8F3568AC7B002C00D16FE0C3
:1011B00067002B683F19033FDB195A78AA73002A8E
:1011C00000D1EA734B4AA118B2680901521800987D
:1011D0000199106051600E9991600F99D16042465B
:1011E0009A705A701A706B7B9946002B00D170E090
:1011F00022004946A8686B6898472A6800285BD097
:101200004B4648465B004B44D719033BB870D11896
:10121000D35C002B00D07B704B460C706B734C453D
:1012200058D0F3681B19013B18787368BFF35F8FC0
:1012300042461A608BF310885346002B08D10002F7
:10124000204305B0F0BCBB46B246A946A046F0BD5F
:10125000039B002B4BD00E9B00200F999847030057
:1012600004000D000B4342D000291ADA009A019BBA
:10127000121BAB410092019380221206934204D3C9
:1012800001231D4C5B4200930194039B9A4681E726
:101290007368BFF35F8F1C608BF31088012040429E
:1012A000CFE700F00BF9802224184D41120600947C
:1012B00001959542E9D3E3E74B465B004B44033B82
:1012C000D3189C70D119D25D002A00D05A704B46B9
:1012D0000B706C73307D009A019B00F073F98246AD
:1012E00000289ED02100306800F090FB99E7002094
:1012F000A7E7C046FFFFFF0FFFFFFF7FF0B5EFF34B
:101300000583CE46474680B505000C0085B0002B0E
:101310000DD0324A0020536A9C4203D8926A0130B1
:10132000AA4232D305B0C0BCB946B046F0BD2C4E7F
:10133000029301932B4B0200009330000B00FFF748
:1013400019FF031EE5DD20BF7168EFF3108772B649
:101350000A68002AFCD0BFF35F8FDAB29446306887
:10136000427B624516D0FF2201681A40894651002F
:1013700088464946904441440339897800290BD175
:101380003269934210D131610EE0E31A5A1E934143
:10139000D8B2C7E7FF221A40F1681B0A8A18013A3F
:1013A0001278DBB29A4214D07368BFF35F8F0022C9
:1013B0001A6087F31088094B00205A6A9442B1D80A
:1013C0009B6A0130AB42ADD2A41A631E9C41E0B2CD
:1013D000A8E7614600F01AFBE6E7C046004005407A
:1013E000EC040020190E0010F0B5EFF30582D6468C
:1013F0004F4646461000C0B51038EFF3108872B65D
:10140000214C2368002BFCD0BFF35F8F0123190010
:1014100081401E4D1F006963AA461D4D29601D4D68
:101420002E78AC463500C5402F402B4215D0534690
:101430005F6A194B8500EB589F4218D36246174BE1
:101440008E43EB581670BFF35F8F0022226088F343
:101450001088002B06D0984704E0BFF35F8F276009
:1014600088F31088E0BCBA46B146A846F0BD0C4BE4
:1014700092009C46624413681360BFF35F8F0023A1
:10148000236088F31088EDE7280100D00040054074
:101490003C70054016150020FC140020841100202B
:1014A000D03F054010B5034B01001800024AFFF77A
:1014B000A7FA10BD14150020D0540010034B596A30
:1014C0000A00986A596A8A42FAD17047004005407A
:1014D00070B504000D00174A536A1900966A536AE2
:1014E0008B42FAD13000190024184D41AB4216D876
:1014F00013D0104B2A005B6A9D4203D90D494B6AF9
:101500009342FCD3934207D10A4A02E0516A9942BE
:1015100002D1916AA142F9D370BDA642E9D9054B27
:101520005B6A1C005A1CEFD0012201246442E517BB
:101530005242E3E70040054070B504000D00EFF3B0
:10154000108672B61A4A1368002BFCD0BFF35F8F67
:10155000002D1BD02000FFF7A1FA164981420AD0C6
:101560002000FFF7A3FA01212000FFF785FA0123ED
:10157000A340114A1360114BA400E550BFF35F8FE5
:1015800000220B4B1A6086F3108870BD0121A14028
:101590000A4BA200D5500A4B20001A788A4305490D
:1015A0001A70FFF7ADFA00212000FFF765FAE5E7B2
:1015B000280100D0E9130010386005408411002094
:1015C00016150020F0B54F46D6464646C0B5070072
:1015D0002B4C616A0D00A66A616AA942FAD18B425E
:1015E00008D805D00120E0BCBA46B146A846F0BDF7
:1015F000B242F7D9EFF3108A72B622480168002987
:10160000FCD0BFF35F8F0125BD401F491C4C8846AD
:10161000097889462943C9B28C464146604608701C
:10162000391D890065630A511849B8004350216A81
:101630000020294219D0616A0800A66A616A8142C5
:10164000FAD18B4219D801D1B24216D8CC450BD071
:101650000B4B1F221D625D6301233A4093400C4AED
:10166000136043464A461A700120BFF35F8F002281
:10167000044B1A608AF31088B5E70020F5E7C046EE
:1016800000400540280100D016150020FC14002061
:1016900080E200E0EFF3108C72B60A490B68002B71
:1016A000FCD0BFF35F8F01238340074A07481362D2
:1016B00002789A430270BFF35F8F00230B608CF3B4
:1016C00010887047280100D0004005401615002002
:1016D00070B505000E001400002923D0002A12D096
:1016E00080686B689847296800280ED063001B1932
:1016F0007200033B9219CB18033A9E7088188A5CDB
:10170000002A11D10470300070BD73009B19620073
:10171000033B1219CB18033A9C7088188A5C002A84
:1017200005D106702000EFE75A700470EBE75A709D
:101730000670F7E730B583600023CCB24373013302
:10174000047342608373C4730D000068012C06D9D2
:10175000421C0133DBB2137003329C42F9D1FF21EA
:1017600029404B005B18C01800230338437030BD7C
:1017700070B505000C1E07D0630001681B19033B00
:10178000CB185A78002A01D1200070BD5000801873
:101790000338091800204E7848702100587028003E
:1017A000FFF796FF310004002800FFF7E1FF060075
:1017B000002C26D00028E7D021003200A8686B68F2
:1017C0009847296800280ED073009B196200033BDC
:1017D0001219CB18033A9C7088188A5C002A00D032
:1017E0005A700670D0E763001B197200033B921910
:1017F000CB18033A9E7088188A5C002A00D05A7071
:1018000004703400C0E7C046F0B557464546DE4692
:101810004E46E0B50D006F0001687F19033F0400DC
:10182000C85D83B00192CA19002850D043001B182C
:10183000033BCB185E78B446002E1AD1019E002ED1
:1018400042D0E67B002E04D073009B19CB18033BDB
:101850005D70A37B002B00D1A573E57300282FD109
:101860000023537003B0F0BCBB46B246A946A04665
:10187000F0BD72006244033A8A185178884600210C
:10188000517089465970320001002000FFF720FF97
:1018900043468246002B07D05B0021684344033B4C
:1018A000CB185A78002A16D1424651462000FFF73D
:1018B0000FFF2168019BCA19002BC2D10028CFD08D
:1018C00043001B18033BCB1800219970C8E7019B0C
:1018D000002BB6D1C4E750008018033809184878A7
:1018E000834648464870587041462000FFF7F0FE96
:1018F000594680462000FFF73BFF4146020020008A
:10190000FFF7E6FE8046CFE7F0B557464546DE4690
:101910004E46E0B583B00191457B04006F0000683E
:101920007F19033FC15DC219002952D04B005B18DB
:10193000033BC3185E78B446002E1CD1019E002ED6
:1019400044D0E67B002E04D073009B19C318033BE0
:101950005D70A37B002B00D1A573E573002931D105
:10196000002328005370617303B0F0BCBB46B2463D
:10197000A946A046F0BD72006244033A821850782E
:101980008046002050708146587032002000FFF7DA
:101990009FFE43468246002B07D05B0021684344EC
:1019A000033BCB185A78002A17D1424651462000F3
:1019B000FFF78EFE019B01002068C219002BC0D1E9
:1019C0000029CDD04B005B18033BC3180020987052
:1019D000C6E7019B002BB4D1C2E750008018033842
:1019E0000918487883464846487058704146200098
:1019F000FFF76EFE594680462000FFF7B9FE4146CC
:101A000002002000FFF764FE8046CEE770B50500B7
:101A100000292CD0437B8B422ED04C0000686418E8
:101A2000033C0419A278002A21D053009B18033BE1
:101A3000C25CC6188A4202D11BE0002A08D05300BB
:101A40009B18033BC3185A788A42F6D162785A70C1
:101A5000002301222800A3706370FFF7D5FE697B85
:101A600002002800FFF734FE6873012000E0002028
:101A700070BD63783370EBE701221900FFF7C4FEF5
:101A8000F2E7C046F8B5CE464746040080B50620CA
:101A90000E0000F01FFA051E51D0524B5249E218B9
:101AA00053425A418023DB039C4692054F4B6244CC
:101AB0001A604F4B1A6010008B689843FBD1494B5A
:101AC0004C4AE31859424B4180215B0049000620F3
:101AD000995200F0FFF93100C00001F0A1FEC309E6
:101AE00032D14022012190466162A362256BEB074F
:101AF00036D427008026E36A00232C3776013E4344
:101B000033600620256300F0E5F94146800001F0CE
:101B100087FE236B05009846DB073BD46023E26A0F
:101B20005A400E3313403360434623638023102210
:101B30009B013B431A60304B23630323A3642800BB
:101B4000C0BCB946B046F8BD2C4A93423FD90023E9
:101B50002B492C4A6162A362256B9046EB07C8D5DE
:101B60002200C02330329B011343234A06201A600F
:101B7000666AA36AB601F61800F0ACF9224901F0D2
:101B80004FFEB6020100300001F04AFE0021FFF7CF
:101B90009FFCAEE72200C02330329B011343164A5C
:101BA00006201A60636AA26A9B019946914400F07C
:101BB00091F94B4614499B02994601F031FE010010
:101BC000484601F02DFE0021FFF782FCA6E77F22A8
:101BD00099018846024001325208190090441300CE
:101BE00082E7C0460080FCBF00C0004000E000402B
:101BF00000F000400C15002001030000FEFF000073
:101C0000FFFF0000C0FF3F004E0E000010B50C208B
:101C100082B000F0B5F9FEF7EBFE002810D08B4B38
:101C20008B488B498B4A186059609860D96018615D
:101C300059619861D961186259625A6202B010BD47
:101C4000854CA06700F0A4F90122844B1A60636CF4
:101C5000012BFCD10322824B1A607F4A936B012B2C
:101C6000FCD1013301217F4A7F480093043300F007
:101C700037F905237D4A009301217D4800F030F9B2
:101C80007C4B5A68FF2A02D8802252005A60802278
:101C9000734B6E4C12011A602169002907D06069EC
:101CA00001F0BEFD013043001B18033BFDD2E022D2
:101CB000704B714819680A4002600222196851404D
:101CC00001320A40042102609A681142FCD080214E
:101CD0006A4A09011160802252005A60684B2361F0
:101CE000684B5968FF2900D85A60032201215B4BD9
:101CF0001A60644A93681942FCD0E02310680340DC
:101D000061480360126803234A40022113405D4A80
:101D1000036093681942FCD080215C4B0901196073
:101D200080215B4B4900516063615A4B5A68FF2A1E
:101D300000D859608022584B12011A60E1690029CD
:101D400007D0606901F06CFD013043001B18033BB4
:101D5000FDD2E0234F4A11680B4050490B608021AF
:101D60004F4B090119608021394B49005160E361F3
:101D70004C4B5A68FF2A00D8596080224A4B120106
:101D80001A60216A002907D0606901F049FD01301D
:101D900043001B18033BFDD2E023424A11680B406D
:101DA00042490B608021424B0901196080235B008E
:101DB00053608022264BD20223623E4B59689142E7
:101DC00000D25A6080223C4B12011A60616A0029DD
:101DD00007D0606901F024FD013043001B18033B6C
:101DE000FDD2E023334A11680B4034490B60802157
:101DF000334B090119608023DB025360154B63628A
:101E0000304B5A68FF2A02D8802252005A60802242
:101E10002D4B12011A60A169002907D0606901F0F9
:101E2000FFFC013043001B18033BFDD2E023254A91
:101E300011680B4025490B608021254B0901196071
:101E400080235B005360124BA361F7E6C80D0020AE
:101E5000006CDC021BB70000008000403CB000407A
:101E600030B00040002F685900800240008C864747
:101E700000C00240308000403090004030A0004060
:101E8000001BB7003C8000403C9000403CA000405C
:101E9000405973075480004054B0004054900040B3
:101EA00054A000406080004060B00040609000405E
:101EB00060A000406C8000406CB000406C9000401E
:101EC0006CA000404880004048B00040489000406E
:101ED00048A00040014B8000C0587047C80D00204A
:101EE000F8B5040021481D0017000E0001F098FC11
:101EF0000100380001F094FC069B29041B031943E0
:101F00002368002B20DB1A4B1A4DE21853425A412A
:101F100080235B019C461203174B62441A60174BE7
:101F20001A601700AB689F43FBD1C022231D9201AA
:101F30001A4321232660A06013602368002BFCDA7B
:101F40000823E1601360F8BD3F2322681340B342C9
:101F5000D9D1A3681B051B0D8342D4D1EE22E368BF
:101F6000D20213408B42CED1EDE7C046001BB70032
:101F70000040FDBF00C0004000E0004000F0004015
:101F80008023024A9B000343D362704700800540D0
:101F9000AA23064A1B0113602F230549D360054B72
:101FA00019605368002BFCDA7047C04600400240BD
:101FB00000B0FA00006002402C4B2D4A70B51A6048
:101FC0002C4A2D4B2D491A6014008B689C43FBD181
:101FD0002B4D2C4EB54208D2013E761BB60808CDDB
:101FE000984723000134B342F9D1FFF70FFE264A88
:101FF000214B1A60214A9368DB43DB01DD09002B8A
:10200000F9D14022214B224C224E9A675A671A6717
:10201000DA66B44208D223682000002B20D00834AE
:10202000FEF7D2FEB442F6D31B4C1C4EC022B16860
:10203000200002F073FAB460FEF704FDFEF79CFE88
:10204000FFF762F8164C174EB44208D2013E361B19
:10205000B60808CC98472B0001359E42F9D170BDD7
:102060000834FEF7A3FEB442D5D3DDE700E000401C
:10207000BFCDFBFEFE7F3C0000F0004000C00040F2
:10208000B00D0020C00D0020FFFFFF0100F0014057
:10209000A80D0020B00D00200000002000ED00E0A1
:1020A000C00D0020C40D002000BEFDE7094A03005A
:1020B0001068002805D00849C3188B4207D8136060
:1020C000704706480449C31810608B42F7D90120B5
:1020D0004042F5E7DC140020000004201815002021
:1020E00010B5FFF7E1FFC0460FB400B5084883B054
:1020F00002F0C4FA049B002B07D005A91800019137
:1021000001F014FB034802F0B9FA0120FFF7CCFFFD
:10211000F45400100455001010B50148FFF7E4FF17
:10212000085500109A4200D2885470477047C04644
:10213000F8B557464546DE464E46E0B598460A9BFA
:1021400006009A460D9B0F00934615009B0710D181
:102150000B9B0C9A93420CD213005C460B9A9D1A6F
:102160005D4422004346013439002020B047A54297
:10217000F7D10B9C6319002C09D01D0053462A1B74
:10218000013C185D39004346B047002CF6D10D9B49
:102190009B070ED55B46EC1A0C9BA34209D99946C6
:1021A0002A004346390020200134B0470135A145BB
:1021B000F6D82800F0BCBB46B246A946A046F8BDFA
:1021C000F0B54F464646D646C0B584B098460EABED
:1021D0001B7894469946129B0D9C109F119E9A075E
:1021E00024D4002E6AD1BC4220D201221A40924649
:1021F000202C00D1CBE00C9A551E302201E0202C7F
:1022000030D001342A55A742F9D85246002A0DD0C1
:10221000B4420BD20C9A551E3022202C02D126E05B
:10222000202C61D001342A55B442F9D1DA0634D5D4
:102230005A0562D4002C5CD10F9A102A00D191E08B
:10224000022A00D1A1E030220C9C227001244A46CF
:10225000002A5CD15A0700D47DE02B220C9D2A5520
:1022600001341CE05246002A02D0202E3CD9202402
:10227000DA0614D55A0512D4202F00D197E0202E6B
:102280003BD120261F2234000F9D102D00D181E06C
:10229000022D4CD030250C9FBD54202CD7D1039358
:1022A0000C9B62460093029643460194FFF740FF61
:1022B00004B0E0BCBA46B146A846F0BD0122150004
:1022C0001D40AA461A4227D04A46002A33D10C3272
:1022D0001A4230D1BC429BD2202C00D08BE7202E5A
:1022E000C5D8DA06A4D4DAE72024DA06D7D55A0509
:1022F00003D4A74221D0B4421FD00F9A102A21D074
:10230000022A10D0202CCAD022000134C2E72D228C
:102310000C9D2A550134C2E7BC4200D386E7202C2D
:1023200000D068E7E1E7202CB9D022000134622513
:102330000C9FBD54E6E7013ECCE7621E012C00D1A4
:102340007AE7A1E79A0616D4202CA8D078220C9D13
:102350002A550134D6E71A07A1D520220C9D2A550B
:1023600001349CE79A060ED478220C9C227030220D
:10237000627002246BE7202C91D058250C9A121918
:1023800015700134BEE75822EFE76222EDE7002A1C
:10239000A7D1AAE7023C9D0604D478250C9F3D55A1
:1023A0001400B1E758250C9F3D551400ACE71F22DF
:1023B0006AE7C04610B5002800D110BD02F012F93E
:1023C000FBE7C046F0B557464E464546DE46E0B50B
:1023D00099B08246894690460993229A239B100021
:1023E000190001F0DEFC002800D0C8E022982399F3
:1023F0000122D54B524201F0CFFC002800D0BEE0B4
:10240000229823990122D14B524201F0B7FC0028B7
:1024100000D0B4E0229823990022002301F0AEFC02
:10242000002800D0E9E1229E239F8023269ADB002A
:102430001A400D92269A1A4201D1062324933B009A
:10244000334300D0B4E0269B1B0500D5BFE1002339
:1024500000240A930B94002304250C93259B00244D
:10246000AB4200D95C1B0223269A1A400D92269A91
:10247000134203D06B426B415B421C400C9B002B10
:1024800007D00A9A0B9B3000390001F016FC0600B9
:102490000F00229823990022002301F06FFC0028EE
:1024A00003D0802109067B181F00269AA84B0096AE
:1024B00001971340099E0493249B03940293424680
:1024C00033004946504600F0A7F90400002D67D0BC
:1024D0002020269A4946024013005A4253415B424B
:1024E000621C18400A92330022004530D0470C9AF3
:1024F0006F1ED317D4185C40D30F9B46002501E014
:10250000202D13D008AA94461F23200063440A21DB
:1025100001355E1901F084F93031317020000A2153
:1025200001F07EF926000400092EE9D80523069360
:10253000002304930A3303935B46099E029310AB76
:102540000A9A009349463300504605970195FFF7D4
:1025500037FE0D9A0400002A22D04246851A259A99
:10256000AA421DD9B04657461600220043464946A6
:1025700020200135B8470134AE42F6D810E0269B42
:1025800042460493259B49460393249B504602935D
:10259000229B239C00930194099B00F03DF90400C9
:1025A000200019B0F0BCBB46B246A946A046F0BD1B
:1025B000684B78009C46400D604401F005FC664A7B
:1025C000664B01F098FB664A664B01F06DFB664A6C
:1025D0003B031B0B1A4304000D00644B1100300039
:1025E000002201F058FB624A624B01F084FB0200BA
:1025F0000B002000290001F057FB01F0FDFB0C90BF
:1026000001F0E2FB5C4A5D4B04000D0001F073FB3E
:1026100000225B4B01F048FB01F0EEFB594A834678
:10262000594B2000290001F066FB040058460D00BC
:1026300001F0CAFB554A564B01F05DFB02000B004E
:102640002000290001F027FB02000B000A900B91EB
:1026500001F051FB04000D000A980B9902000B00D9
:1026600001F022FB00220E900F914A4B200029001E
:1026700001F023FB0022484B01F016FB02000B0087
:102680002000290001F019FB0022444B01F00CFB53
:1026900002000B002000290001F00FFB0A9A0B9B9F
:1026A0000D0080210400C905002001F0F4FA0200A9
:1026B0000B002000290001F0F7FA394C02000B0052
:1026C0000E980F9901F0F9FA5C440022264B01F0B4
:1026D000EBFA2305002201F00EFB04000D000200BE
:1026E0000B00300039000A940B9501F047FB0028DD
:1026F0005ED123002A00C6250C9963318D42AD417D
:1027000026996D420435090500D4A7E6134364D029
:1027100030003900234A244B01F036FB002807D053
:10272000002230003900214B01F028FB002854D151
:10273000249B002B00D191E60D9B5A1E9341249AB5
:10274000D31A24938AE6C046FFFFEF7FFFFFEFFF17
:10275000FFF7FFFF01FCFFFFFB799F501344D33FBE
:10276000B3C8608B288AC63F0000F03F0000F83FE6
:1027700061436F63A787D23F71A379094F930A40E2
:102780000000E03F1655B5BBB16B0240EF39FAFED1
:10279000422EE63F00002C4000002440000018407C
:1027A000FF0300002D431CEBE2361A3F80842E41CC
:1027B0000C9B0022013B0C932000164B290001F0DA
:1027C0007CFA0A00010003000A910B9293E70023B0
:1027D00000240A930B9400230C93249A0C9B9A4296
:1027E00014DDD31A013B24938023269ADB001A437D
:1027F0000023002526920C9330E680221206944690
:10280000229B1E00239B63441F000EE6002324939B
:10281000EAE7C04600002440F0B54546DE464E4695
:102820005746E0B595B08B46904699461E9A1F9B39
:102830000A9019001000209D01F0B3FA002800D082
:10284000B0E11E981F990122C74B524201F096FA3F
:10285000002800D037E11E981F990122C34B524235
:1028600001F09AFA002800D0A7E01E981F990022D4
:10287000BF4B01F091FA002800D088E01E981F9904
:102880000022BC4B01F07AFA002800D07FE01E98AD
:102890001F990022002301F071FA002800D0FAE00D
:1028A00000230B938023229C229ADB001C401A42B7
:1028B00000D102E1092D00D87EE106A98C462C004A
:1028C000172200233021093C62440133D154EF1A0E
:1028D000202B00D132E1A342F7D10022A44B069273
:1028E00007931E981F9901F087FA050001F06CFA12
:1028F00002000B001E981F9901F0CDF9069A079B64
:1029000001F0F9F90890099101F09AFA060001F036
:1029100057FA02000B000898099901F0BCF900224F
:10292000954B0890099101F037FA002800D1D2E0C8
:102930000136300001F044FA069A079B01F024FAB0
:10294000002801D000260135AA46002F00D098E0CB
:10295000280001F039FA02000B001E981F9901F0BF
:102960009AF9854B002206000F0001F007FA0CAB24
:102970009A46002845D10022300039007E4B01F0F4
:102980000BFA00283DD1EB073BD5013539E0229BFE
:1029900042460493219B594603930A981E9B1F9C11
:1029A0000295009301944B46FFF70CFD15B0F0BC67
:1029B000BB46B246A946A046F0BD229B5B0767D442
:1029C00003226E4B22990192039121990291009367
:1029D00042464B4659460A98FFF7AAFBE6E706AA85
:1029E00094461723280063440A2101341E1900F07D
:1029F000EFFE3031280031700A2100F0E9FE051E9B
:102A000076D0202CEBD10323229A1340012B1DD129
:102A1000219B002B1AD00B9B002B00D0BBE0229AED
:102A20000C33134200D0B6E0219BA34200D887E0CC
:102A300006AB9C4617223023624404E021990134FE
:102A400013558C4259D0202CF8D12024229B01947C
:102A50000393219B02935346B9E706AA9446172392
:102A60000A216344300001341D1900F0D9FE3031D1
:102A7000297030000A21013F00F0D2FE092E46D90C
:102A80000600202CE9D155460CAB20249A46B8E725
:102A900004223B4B96E71E9A1F9B0020002101F069
:102AA000FAF801230B938023229C229ADB001E90CC
:102AB0001F911C401A4200D0FCE60022314B062731
:102AC000069207930DE7229B0393219B0293042315
:102AD00001932D4B7BE7002208980999264B01F0C2
:102AE0004DF9002800D02FE7002E4FD101362BE7FB
:102AF0000323229A1340012B68D0202CA6D00B9BD5
:102B0000002B1FD02D235246135501349EE7554606
:102B1000202CB9D030223B19002F4BD0172006A90A
:102B2000013409180A55202CAED09C42F6D10CAACB
:102B300092462E2251465C1CCA5462E72024CCE601
:102B4000202C83D0229B5B0708D4229B1B0700D438
:102B50007CE7202352461355013477E72B23524656
:102B60001355013472E7C046FFFFEFFFFFFFEF7F11
:102B700065CDCD4165CDCDC10000E03F1C550010B5
:102B80001455001080842E4124550010F30700D402
:102B9000DAE60136D8E6219B013B2193A34200D916
:102BA00046E7AAE7229B0393219B02930323019309
:102BB000084B0CE72300BAE7074BEA009B185C6858
:102BC0001B682F000693079400248AE6219B002BA4
:102BD00093D020E720550010C8560010F0B5DE460F
:102BE00057464E464546E0B59FB01C00289B93468D
:102BF0000A93CC4ACC4B8A4609901A60002900D12E
:102C00004DE1002320789946002800D14FE1C74BC1
:102C10004D460893C64B0D930AE02A006E1C5B4696
:102C2000099D5146A847350001342078002872D00C
:102C30002528F2D110239946083B9846043B0021F1
:102C40009C4602270134207826000300203BDBB29B
:102C5000102B03D8089A9B00D3589F460300303BA3
:102C6000092B6ED900272A2800D18AE000230B9374
:102C70002E2800D176E00300683BDBB2122B1BD874
:102C8000AC4C9B00E3589F46012301341943DAE71B
:102C900039430134D7E7634601341943D3E74B4640
:102CA00001341943CFE7434601341943CBE780236E
:102CB0005B0070781943013667280AD824281FD989
:102CC0000300253BDBB2422B1AD80D9A9B00D35848
:102CD0009F460300693BDBB20F2B11D801249C40B7
:102CE000954AA446904614400C94624644462242BB
:102CF00000D025E20A2B00D101E1072B00D1D8E05A
:102D0000099C2A005B465146A04770786F1C741CD2
:102D10003D0000288CD1A9462C00CB4503D80123C7
:102D20005B425B4499465B464A4651460020099DFA
:102D3000A84720001FB0F0BCBB46B246A946A0463B
:102D4000F0BD0027BB00DF1901367F003F18307847
:102D5000303F0300303B092BF4D900230B932E287E
:102D600000D088E780237078DB0019430300303BF4
:102D7000741C092B00D82CE12A2800D138E1260048
:102D800079E70A9B80CB002F03DB60780A93661CEF
:102D90006CE70222607811437F420A93661C65E764
:102DA000672800D1C8E1472800D104E2452800D1B6
:102DB00004E207200A9B04910733834319000B9A0E
:102DC000039702920CC90998009201930A912A0074
:102DD0005B465146FFF7F6FA741C050025E770784C
:102DE0006C2800D10DE280235B001943013663E7B4
:102DF00080239B007078194301365DE7707868285E
:102E000000D1F9E180230136194355E7462800D166
:102E10008FE107200A9B04910733834319000B9A23
:102E2000039702920CC90998009201930A912A0013
:102E30005B465146FFF7F0FC741C0500F5E62A00DE
:102E4000099C5B46514625206F1CA0473D00741C21
:102E5000EBE6890700D4DEE10A9B2A0098466B1C4A
:102E60009946434601CB51469846099C5B46C0B201
:102E7000A047ED19012F00D893E24C46B1465646C3
:102E8000099F22005B46013431002020B847AC4244
:102E9000F7D1B24643464E460A93741CC5E6274B0B
:102EA0002078099300239946002800D0AFE600243B
:102EB00033E70A9B1A0008CA9046002B00D1A7E00E
:102EC000212008430EA98C461F2262440F27AC46DE
:102ED000814615000C9C02E0202C0CD01300380019
:102EE000184001003731092800D807390134295525
:102EF0001A090F2BF0D8654648460C9494E00A9BBB
:102F00001A0008CA12920B9A002A7BD102241A785E
:102F10006442002A1DD0013418199C461C0003008D
:102F200010E0C046DD2B0010E01400202C550010EE
:102F3000BC55001070550010419000002D2100106C
:102F40009C4203D0607801340028F9D16346E01A2E
:102F50000C908020C00084460840804660460142B4
:102F600004D00B980C9C844200D90C90022084461B
:102F700008400A906046084200D189E1101E00D145
:102F800070E14246002A00D11BE10B9A5B1B904680
:102F9000A84444462A00B84699465746B246099E78
:102FA00009E05B463900551CB0474B46585D002888
:102FB00000D12CE12A009442F3D156462500BA46AE
:102FC00047460A9B002B00D04CE1129B741C0A93CD
:102FD0002BE6002293009B185B0001341A1820781E
:102FE000303A0300303B092BF4D926000B9242E61D
:102FF0000A9B023604CBD043C01702400B923078B4
:103000000A9338E61A78002AA3D00B98441E82E768
:103010001023080080279843113318430B00FF004A
:103020003B40394200D14DE7082305930B9B2A0012
:10303000049310230393002302930C9B06900193A7
:1030400016AB009351465B460998FFF7B9F8434623
:103050000500741C0A93E8E5622800D1A6E158280F
:1030600000D1B1E180230A00DB001A4090461942EA
:1030700000D189E1112399438C46802362469B004D
:103080001A40100062461A4200D023E180236446B1
:103090005B001C401A4200D032E263465B0600D55A
:1030A0006BE163460A991B0600D4DBE208C91BB238
:1030B000DA179818504080B20A91DA0F0C92002B60
:1030C00000D118E280460EAA91461F234B44139567
:1030D000E14645461297B0461E0001E0202C0FD075
:1030E00028000A2100F09CFB013437193031397077
:1030F00028000A2100F094FB2F000500092FEDD8CD
:103100004646CC46129F139D634606930B9B05973C
:1031100004930A2303930C9B029316AB2A00019499
:10312000009351465B460998FFF74AF8741C050066
:103130007BE5202319436CE680231B01194338E605
:10314000782800D07CE180230A00DB001A409146F9
:10315000194200D1A5E20D239943080003330C93D3
:10316000802302009B001A409046184200D078E16C
:10317000802304005B001C40184200D007E2430695
:1031800000D453E2FF210A9B04CB0A4090460A93E5
:103190004346002B00D026E1103398434B46002BCA
:1031A00000D120E100240B9B069004930C9B059713
:1031B00003930023B0E780231B0119432023194305
:1031C000F7E55B1B99460C9B099C98465B46B3460A
:1031D0005646BA461F002A003B003100A0474B4626
:1031E0000135585D0028F6D143460C933B00574605
:1031F000B2465E469B46E4E6C023B07819430236E9
:103200005AE5C0239B00B0781943023654E5564670
:10321000BA464746D5E6012F00D832E26B1E9846E3
:10322000B8442C00A9464546B8465746B246099EC2
:1032300022005B46013439002020B047AC42F7D170
:103240000A9B564601CBBA464746984622005B4643
:10325000099C5146C0B2A0474D464346ED190A931A
:10326000741CE2E40C9BA8469F4200D8ADE644469D
:10327000B04656467D19099FED1A22005B4601347F
:1032800031002020B847AC42F7D1B24646469CE612
:103290000C98874200D8F0E1424698467919B94621
:1032A0005746B246099E0C1A0C922A005B4601351D
:1032B00039002020B047A542F7D15646BA464F46BE
:1032C00043460C9A90467A1C0C921A78101E00D035
:1032D00057E67AE60822072191460A9B07338B437B
:1032E00099444A460ACB0C000A921C43DA0F002C80
:1032F0004ED0D817040010904C4011900E941098A6
:1033000011990C005C400F940E9B0F9C1B1A8C4172
:103310000E930F940EA988461F230024434412974E
:10332000B046270013951E000E9C0F9DE1460C929F
:1033300001E0202F10D0200029000A22002300F0F5
:10334000ADFA013730322B00F2550D002200040097
:10335000002BEED1092AECD84646CC460E940F95A8
:103360000C9A3C00139D129F634606930B9B059796
:1033700004930A2302920393CFE6FF230A9904C918
:10338000134018000A9198E6102399438C4674E67E
:1033900043460024002BE7D1002300240E930F9412
:1033A000B8E743464D460A93741C3EE480230A0066
:1033B000DB001A409146194200D140E10D239943A8
:1033C0000B3B08000C93CBE680230A00DB001A407D
:1033D0009146194200D162E10D2320209943033325
:1033E00008430C93BCE66123810600D541230EA956
:1033F0001F228C46DBB262440A3B13971495814628
:1034000045460C9FB0461293160008E03033DBB2FD
:1034100001343355BD420ED3202C0CD005003900A9
:10342000280000F0FDF9CBB20929EFD9129A944691
:103430006344DBB2ECE746464846139F149DB2E670
:103440006F2800D03CE10C230800984380230A0039
:10345000DB001A409146194200D02AE108230C9360
:103460007EE60A99FA3BFF3B0731994301339C46BC
:103470008C4463464A680A930B6890469C46134303
:10348000191E06D14B46103100248843002B00D072
:1034900089E66121830600D541210EAA91461F23AA
:1034A0004B449946C9B20C9B0A391397149515964B
:1034B00045464E46002467469846814612910CE0E8
:1034C0003032D2B2002301343255AB4200D1BCE0DD
:1034D000202C00D1BCE007000D004246002338003C
:1034E000290000F0DBF9D2B2092AE9D9129B9C46E7
:1034F0006244D2B2E6E74346002B00D004E6E2E5A0
:103500000A9C08CCDA0F1392002B00D1A5E0D91742
:103510005B184B4098460EAA91461F234B440C95CE
:10352000A14645461296E04606001C000A9701E0B7
:10353000202E0FD028000A2100F072F90136A719B9
:103540003031397028000A2100F06AF92F00050097
:10355000092FEDD8C4464C4630000A9F0C9D129EA0
:10356000634606930B9B2A0004930A230393139B41
:103570000190029316AB009351465B46099805975C
:10358000FEF71EFE0A940500741CFFF74EFB0A9B13
:1035900010CB1493002C04D1102398434B46002BDE
:1035A0002CD16123810600D541230EA91F228C4610
:1035B000DBB262440A3B12971395814645460C9F45
:1035C000B0460A93160008E03033DBB2013573557C
:1035D000BC420ED3202D0CD004003900200000F096
:1035E0001FF9CBB20929EFD90A9A94466344DBB29A
:1035F000ECE748464646129FA846139D0B9B2A00BF
:1036000004930C9B0690039300230293434601937B
:1036100016AB009351465B4609980597FEF7D0FD1F
:10362000149B05000A93741CFFF7FFFA03061FD5CD
:103630000A9B02CB09040A0C90460A93A8E50C23C6
:1036400099430A3B08000C938AE5B84500D83FE748
:103650004846139F149D159EA5E54346002B00D0B8
:103660007EE758E708C9DA17981850400A9124E510
:103670000A9B04CB90460A938AE5010001310C9124
:1036800024E60A9F6C1C01CF2A005B46099D514627
:10369000C0B2A84725000A97741CFFF7C6FA20237A
:1036A00019430C23994300239946103308000C93C7
:1036B00056E508238C460C930D23604698434FE54E
:1036C00010230A009A439446692808D180230A00EF
:1036D000DB001A409046194200D1CEE4CAE41C2314
:1036E0000800984380230A00DB001A4091461942E3
:1036F00002D10A230C9333E50A230C93DCE7C0467E
:103700000EB4012230B584B007AC08CC064D0100E0
:103710000094280052420394FFF760FA04B030BCD2
:1037200008BC03B01847C0462521001010B5094A4F
:103730000300146884B0002C08D0012200910648D0
:10374000524203A9A047012004B010BD00F096FF2B
:103750000020F9E7E0140020B523001001480421FF
:10376000014B1847200500208D370010142310B599
:103770000100188804331B88984710BD162310B524
:103780000100188802331B88984710BDF8B54746DA
:10379000CE4680B50F1E19D0142399460433040079
:1037A0000025012698464B461888434621681B8809
:1037B000984701C4431E9841013540420640AF423C
:1037C000F1D13000C0BCB946B046F8BD0126F8E7DB
:1037D000124A936F9B0815D29066D166002905D0D6
:1037E000FFE7FFE7FFE7516F106F704704B58021D7
:1037F0000906C2175140002800D0C84301F04CFE12
:10380000002104BDF0B5146E556E576F166FFFF7AB
:10381000E3FF1466556657671667F0BD000000D0D9
:10382000114A936F9B0813D210665166002905D088
:10383000FFE7FFE7FFE7516F106F704704B50028FF
:1038400001D00020C04301F027FE002104BDC04686
:10385000F0B5146E556E576F166FFFF7E5FF1466DF
:10386000556657671667F0BD000000D094464A4A77
:10387000926F9208624601D228E0C046F0B5464EEB
:10388000346E756E776F366F00F020F89446424ABA
:1038900014665566576716676246F0BD94463E4A01
:1038A000926F9208624601D254E0C046F0B53A4E9B
:1038B000346E756E776F366F00F04CF89446364A6A
:1038C00014665566576716676246F0BD002B24DB09
:1038D00011D000293EDA00B5C943404200D1013180
:1038E00000F038F8C943404200D10131DB43524275
:1038F00000D1013300BD002AEBD1002801D10029FD
:1039000005D00020C90FC90701D1C043410800B547
:1039100001F0BAFD0022002300BD00B500290ADB3A
:10392000DB43524200D1013300F014F8C943404256
:1039300000D1013100BDC943404200D10131DB4318
:10394000524200D1013300F005F8DB43524200D16E
:10395000013300BD002923D1002B18D1002A0CD03F
:10396000BC460D4F38667A6600210023FFE7FFE76B
:10397000FFE77A6F386F67467047002801D0074825
:10398000010000B501F080FD0022002300BD02000F
:103990000B00002000217047000000D0FFFFFFFF58
:1039A000002B00D0BFE0130C28D1002AE7D080B450
:1039B000114F39667A66FFE7FFE730B4040C7B6F7E
:1039C000396F1B0423433B667A66FFE7FFE7FFE797
:1039D000C04684B27B6F3D6F1B0423433B667A660F
:1039E000FFE7FFE7C04600232C042D0C7A6F386FE9
:1039F00000196941B0BC7047000000D0F0B5944692
:103A00000025140E01D112020835140F01D1120144
:103A10000435940F01D192000235D40F01D1520028
:103A20000135D40B0134254F7C66254C3C660E0CC9
:103A300093B2FFE7FFE7FFE73C6F6643360C77037F
:103A4000BE467343DF0B5B04C01AB941130C7343CA
:103A5000DB18C91ACE086643360CB64493B27343DA
:103A60001F0F1B01C01AB941130C73431F0B1B0519
:103A7000C01AB941860D8F023E436643360C092DAC
:103A800024DB520A7243801A7703460A6643360CD7
:103A900016235B1BDE40DF40BF1964466643821B72
:103AA0007046043506330100D940A840C01900D340
:103AB0000131A24206D20023F0BD0000000000D078
:103AC000FFFFFFFF121B0130F3D3F1E709277F1B34
:103AD000FE406446A2B27243801A00D20139220C21
:103AE0007243130C1204821A99410B00704604357C
:103AF00013370100F940A840801900D30131002B91
:103B000002D1A2420AD2F0BD013000D30131121B12
:103B1000FAD2013BF8D1A24200D2F0BD013000D36D
:103B20000131121BF7E7F0B51C0C00D080E00CB49B
:103B300000251C0A04D11B02160E3343120208355D
:103B40001C0B04D11B01160F3343120104359C0BCF
:103B500004D19B00960F334392000235DC0B02D157
:103B600092185B4101351C00971864410134464F9F
:103B70007C66464C3C660E0CFFE7FFE7FFE7C0465D
:103B80003C6F6643360C7703BE4697B27743C01B43
:103B900000D20139C01B00D201399FB27743C91B43
:103BA000C91B170C77437E04FF0B801BB941CE085D
:103BB0006643360C0C2D33DBB644120B1F053A431B
:103BC0001B0B97B27743C01B00D201399FB27743DA
:103BD000C91B170C77433E043F0C801BB941860D6F
:103BE0008F023E43664329277F1BFE400C3D7746EC
:103BF000AF40BF1930BCA2B2ABB272437343801A5C
:103C00009941220C7243130C1204801A994102004C
:103C10000B000137001BA941F9D2781E0021F0BD2D
:103C20000C277F1BFE4077467F0BAF40FF19E0E774
:103C300000245D1C07D0144F7D663966FFE7FFE75F
:103C4000FFE7FFE73C6F95B29EB265436643401BBA
:103C5000B141150C1E0C6543664336042F0C3E43E0
:103C60002D04401BB141994204D202000B002000F8
:103C70000021F0BD01D19042F7D3801A994101345F
:103C80009942F2D3F6E70000000000D0FFFFFFFFEB
:103C900048404140484018B41B4B5B68FC460193C8
:103CA00008BD04DF233F001018B4174B1B68FC4607
:103CB000019308BD00DF2D3F00109446134A926F18
:103CC000920809D2624618B40F4BDB68FC46019398
:103CD00008BD0CDFE54100100C4AF0B5146E556EBE
:103CE000576F166F6246FFF7EEFF084A1466556677
:103CF00057671667F0BD18B4034B9B68FC460193E9
:103D000008BD08DF89400010300F0020000000D0FF
:103D1000FFB550404240504059404B40594000E0B0
:103D2000FFB5154F4C00640D03D0BC4204D10C0309
:103D300014D80020090D09055C00640D03D0BC42B5
:103D400004D11C030AD800221B0D1B0501264B4081
:103D500009D44B4003D58B4200D18242FFBD99422A
:103D6000FCD19042FFBD0B43DB1803431343F5D056
:103D7000C9434918FFBD0000FF07000000B5FFF769
:103D8000CFFF804100BDC04600B5FFF7C1FF01D99C
:103D9000002000BD012000BD00B5FFF7B9FF804144
:103DA00000BD012040054A00121804D85A0012181C
:103DB00001D80020704701207047002070470000A4
:103DC0000021002805D17047C1174840401AFAD099
:103DD000C90713B5064B1B6898470CBC441CA2408E
:103DE0001005120B0349091B09051943114310BDA6
:103DF000F41400201F04000010B54C00620D802355
:103E0000D218DB00D21A5B057E2A10DD9E3A13DA47
:103E1000CC170903490819435242D14064000134C8
:103E20001532202A05DAD0400843604310BD002037
:103E300010BD0846604310BDC80FC018013810BD42
:103E400018B4044B5B6AFC46019308BD24DF95431C
:103E500000100000300F0020132370B51D78012DD5
:103E600015D010DD1D48FFF789FC1D4C0100802294
:103E7000200000F053FB022D2DD01A48FFF776FCEE
:103E8000194B186070BD194B154CA364F5E7174B1F
:103E9000134C23606360A360E36023616361A361EB
:103EA000E36123626362A362E36223636363A363E8
:103EB000E36323646364A364E36423656365A365C8
:103EC000E36523666366A366E36623676367A367A8
:103ED000E367A364D1E7054BA364CEE75344000036
:103EE000300F00204C330000F4140020F13E00108D
:103EF00007B5604601880A0A0230DF2AFAD1C9B242
:103F0000820804D3028840880004104300E000685F
:103F1000014A5050039007BD300F00200FB403BC7E
:103F20000CBCF0B50124E407634000E0F0B50C0DD3
:103F3000CF0F661E3605891B640503D3C943404273
:103F400000D30131640D03D0661CF60A07D0E41BD0
:103F500000207F00791C89078912803C24031D0DF5
:103F6000DF0F6E1E36059B1B6D0503D3DB435242EC
:103F700000D301336D0D03D06E1CF60A07D0ED1B84
:103F800000227F007B1C9B079B12803D2D032F1B73
:103F9000661B58D4A446202E46DA20371400BC40B5
:103FA0001D00BD40F24033412A4380185941CB0FD8
:103FB00005D0C943C043002264425041514162468A
:103FC0004D0D28D10D0D07D100281FD024194041D7
:103FD0004941013A0D0DF9D0640006D3013000D3F8
:103FE0000131002C01D140084000013A0BD4941C4F
:103FF000E40A04D112051144DB071944F0BDD907C6
:10400000204B194300E0D9070020F0BD0029DDD185
:10401000002CDBD1F0BD0132C6074008CD07284394
:104020004908002EE1D0D9E73C2E29DA203E40375E
:104030001400BC4000D00124F24014431A00BB40DD
:104040001C43D317ACE7AC46202F08DA2036040017
:10405000B4400D00B540F84039412843A5E73C2F56
:104060000CDA203F40360400B44000D00124F84070
:1040700004430800B1400C43C117EAE710001900DF
:10408000002494E70000F07FF0B50C0D661E3605A5
:10409000891BE60A6405640D02D0651CED0A04D094
:1040A000002001210905803C2403A4461C0D671E45
:1040B0003F05DB1BE70A6405640D02D0651CED0AB1
:1040C00004D0002201231B05803C24037740644474
:1040D00097B484B296B27443070C7E43150C6F43B9
:1040E00080B26843361802D3012000043F18300420
:1040F000350C00197D41844688B29AB250430C0CAD
:1041000062431F0C7C438EB27E43921902D3012678
:104110003604A4191604170C3618674101BC81B285
:104120009AB25143040C62431B0C5C4380B2584367
:10413000121802D30120000424181004130C401894
:1041400063412D185E410020474106BC88B293B2FE
:1041500058430C0C6343120C544389B251435B180F
:1041600002D301210904641819041A0C09186241C8
:104170006D1856410020474118BCF902720D1143D9
:10418000F0026A0D1043ED020A0D03D16D19404192
:104190004941013B124E9B1B7600B3420ED26D008B
:1041A00007D30130002671416646354301D14008EE
:1041B00040001B05C918E4072144F0BD0BDA0133A8
:1041C00006D1013004D101314F0D01D04908F2E789
:1041D000E1070020F0BD013631050020EBE70000CB
:1041E000FF030000F0B51C0D671E3F05DB1BE70A4F
:1041F0006405640D02D0661CF60A04D00022012377
:104200001B05803C2403D0252D060026F6432E6690
:104210001E096E66CE0FF619B44649004F0D02D046
:104220007E1CF60A03D000200021403F3F033E1BC6
:10423000B600B444013F7F05C91B49082E6F013603
:1042400076089C02950D25437543ED137543AD1318
:1042500001356D10F603761B0CB4CC02450D2C43D2
:10426000A2B2B3B25A43270C7B43350C6F43A4B2BE
:104270006C431B1902D3012424043F191C041D0C98
:10428000A4187D4124196D41009A91B2ACB26143EA
:10429000170C7C432B0C5F4392B25A43A41802D3F1
:1042A00001221204BF182204230C52187B41019CE6
:1042B0006C431B19520ED9010A434401A01A81B262
:1042C000B2B2514303145A43360C734387B2774357
:1042D000D617D21900277E4136049B191704160CF5
:1042E0007F185E417316ED18F30100268033754187
:1042F000A90F06D16400690AE8055B0A184309D2D0
:104300002FE00422944480337541A90AA8059B0A32
:10431000184326D3404149412404009A019B0D00D3
:104320005543641B4343E41A95B286B27543170C98
:104330007E43030C5F4392B25A43B61802D3012264
:104340001204BF183204330C52197B4152429C4173
:10435000002C02D40022013051414008CA0710430A
:10436000490802B06246D7079210084BD218084B92
:104370009A4203D212058918C919F0BD0020002AFB
:1043800001DC3900F0BD01331905F5E7FD0300003C
:10439000FE070000002200B5203200F004F80800FB
:1043A00000BD000000220B150AD410B5944600F0A1
:1043B00031F81414013400DA0021CB17144C2047D3
:1043C0000020002170476244343A0CD40C2A07DAEA
:1043D00004009140904052422032D440214310BD0D
:1043E000D843D94310BD203207D40C4694405242E2
:1043F00020321141D040204310BD0800C91720329F
:1044000003D452422032104110BD1800190010BDD3
:10441000C74300100A0DCC0F531E1B05C91A5205C5
:1044200003D3C943404200D30131520D03D0531C82
:10443000DB0A07D0121B00206400611C8907891267
:10444000803A1203014BD21A70470000FF030000AC
:10445000132310B512481C78FFF790F90100012CC6
:104460000AD003DD80220F4800F058F80E48FFF70D
:104470007DF90E4B186010BD0A4C5422200000F04C
:104480004DF80B4B6365A365E36523666366A3661E
:10449000E36623676367A367E3672362E361E5E796
:1044A00053460000301000204C330000F41400206C
:1044B000B544001007B5604601880A0A0230DF2AB9
:1044C000FAD1C9B2820804D302884088000410439C
:1044D00000E00068014A5050039007BD30100020F2
:1044E00010B5040000F084FB002804D0034B04192D
:1044F0009C4200D810BD0248FDF7F6FD00000420E4
:104500001857001010B500F07DFB10BD01480421C4
:10451000014B1847300500208D370010014B5B68B8
:104520001847000030050020F0B546464F46D646F5
:10453000C0B5437D80460E001700002B4BD0002AEB
:1045400032DD274B01259A464B1E00240020994658
:1045500007E0335D0A2B2CD02B0001340135BB4220
:1045600013DA002CF5D133780A2BF5D143461B7DA5
:10457000002BF1D14346504602211B689847280082
:104580002B0001340135BB42EBDB874204DD43469F
:10459000391A1B6830189847F619013E33780D3BDD
:1045A0005A42534142461375E0BCBA46B146A8464A
:1045B000F0BD4B461B5D0D2BCED0A042DADA434650
:1045C000211A1B68301898474346504602211B6841
:1045D00098472800D4E70368110030009847E3E7C4
:1045E00088570010F0B5CE46474680B583B06B467D
:1045F0000600DD1D2870FCF761FF00231A4A12181F
:104600004B41802109068B4202D30122174B5242B3
:1046100017490800884600F047FF164B81461C6882
:10462000002C14D0144F02E02469002C0FD0236812
:10463000002BF9D03B68002B01D0A342F4D120001D
:1046400001222900FFF770FF2469002CEFD14B46AF
:10465000002B05D1300003B0C0BCB946B046F0BD58
:10466000404600F009FFF5E740420F00FFFFFF7FE3
:10467000A80D0020D4140020D8140020F0B5DE4688
:1046800057464E464546E0B585B0070000F094FD1C
:104690000600FCF713FF00232B4A12184B41802120
:1046A00009068B4202D30122284B524228490800B6
:1046B0008B4600F0F9FE274B01901C689A46002CAF
:1046C0003BD0254B984602ABDD1D0A23994602E0FC
:1046D0002469002C17D02368002BF9D043461B68AF
:1046E000002B01D0A342F3D1200032003900FFF7A4
:1046F0001BFF4B462000012229002B70FFF714FFFF
:104700002469002CE7D1019B002B18D153461C686B
:10471000002C06D06368002B0BD098472469002C2E
:10472000F8D1300005B0F0BCBB46B246A946A04661
:10473000F0BD2469002CEDD1F3E70028F1D05846F4
:1047400000F09AFEE2E7C04640420F00FFFFFF7F05
:10475000A80D0020D4140020D81400200A4A1368A1
:10476000002B05D10CE01A001B691032002B07D07A
:104770009842F8D1002902D10369136001617047A2
:104780000029FCD01060FAE7D414002010B500F026
:10479000CFF8012010BDC046F0B5002915DD0E4B45
:1047A0000D271A680D4B0E4CD3185D426B4145180E
:1047B00020215B001E5F0478A64207D0936919424E
:1047C000FCD101301460A842F5D1F0BD93691942C3
:1047D000FCD11760F2E7C046101500200080FCBF36
:1047E0000C15002030B504000D1E30DD0020102116
:1047F000204B013C1A689369194217D10130936923
:104800001942FCD1136823548542F4D11A4B1B681A
:10481000002B09D0502338219363536B3432194055
:1048200080235B011343196028000FE0124B1B68C3
:10483000002B09D0502338219363536B3432194035
:1048400080235B011A431160002810D030BD0A4B51
:104850001B68002B0BD050223821064B1B689A6333
:104860005A6B3433114080225201134319600320E4
:104870004042EBE7101500208C140020064B10B5C9
:104880001B68002B06D00021044A12689163044A79
:104890001068984710BDC0468C14002010150020E9
:1048A000901400201D4BF0B51A68C64698461C4B64
:1048B0000E00D31859424B411A4F14331C00050007
:1048C00000B53B68002807D0002B11D0164B3D6087
:1048D0001E6080BCB846F0BD002BF7D0906300216D
:1048E0002000FCF7C9F820001049FCF709F9EDE7B2
:1048F00020000E49FCF7DAF801212000FCF7BCF893
:104900004346502238211B689A635A6B3433114056
:104910008022520113431960D8E7C04610150020C9
:104920000080FCBF8C140020901400207D480010F3
:104930000C4B10B51B780C4B0C4C1B780C4B02210C
:1049400000202360FCF70CF802210120FCF708F896
:10495000E12120684902FDF795F801210548FFF79C
:10496000FDFE10BDF0570010EC5700101015002090
:104970000040034040050020F8B5DE4657464E464D
:1049800045468346E0B505200C00FDF7A3FA060076
:10499000600821008019FEF743FF430098468044D9
:1049A000070005214046FEF73BFF3B1A9A46204B85
:1049B0008146700080199C4234D81E49FEF730FFB2
:1049C000451C5B461C6800230422E3662368012023
:1049D000534002321A4080235B0123431A6053463E
:1049E000E3614B46236243464F2B03D95021404697
:1049F000FEF716FFA023E050E36F22005D40802306
:104A00007C322D045B0113432D0C1D600123390002
:104A10003000E366FEF704FFF0BCBB46B246A94691
:104A2000A046F8BD0449FEF7FBFE451CC9E7C04699
:104A30003F420F008096980040787D01104A70B583
:104A4000821A53425A41072352429A430D4B103265
:104A50001A600D4B0D4C1A601500A3689D432B1E68
:104A6000FAD166240268FF340571D5661460633C90
:104A70008833FF3CD5639563D450FFF77DFF70BD4D
:104A80006005002000E0004000F0004000C0004051
:104A9000F0B557464E46DE4645468446E0B583B0FF
:104AA0001F000CAB18786346914600221B680190EA
:104AB000DA6601325960DA66002F4FDD7A1E9046C1
:104AC0006246127901269202802493463A004640BB
:104AD000760280253700002046461021A2469046E7
:104AE000AD00341A624254414A4664423C4000944C
:104AF0005C46125C2243009C22431A615A6B1142AD
:104B0000FCD052469C58002C10D1864221D0002265
:104B1000013093468045E4D16346019A1A7103B08F
:104B2000F0BCBB46B246A946A046F0BD5A6D012274
:104B300093465A6B2A42FCD01A6E5A46002AE6D097
:104B4000002C03D0E30701D42407E5D4022040421F
:104B5000E2E7019A002ADAD19346EAE70020DBE790
:104B6000F0B5DE464E4645465746E0B5060009A874
:104B70000078346880460020E06661600121934639
:104B8000E166002B32DD8022591E52008C4692468F
:104B90008025616F1029FCD00021002801D13179D6
:104BA000890260451CD052461143216102E0A16F89
:104BB00000290DD16159616D0029F8D002204042D1
:104BC00043463371F0BCBB46B246A946A046F0BD91
:104BD0005A462169115401308342F1D03468D8E734
:104BE0004246012757407A021143DCE70020E7E7FD
:104BF00010B5034B0100186800F00EF810BDC04658
:104C00006805002010B5034B0100186800F050FB48
:104C100010BDC04668050020F0B54E464546DE464C
:104C20005746E0B50D000B35060083B0162D22D88F
:104C3000102900D9B2E000F0A9FA102518230220AB
:104C4000CC4FFB181A005C68083A944200D1B5E0DA
:104C5000032362689A431300E268A168CA60916006
:104C60000122E318596830000A435A6000F090FAB4
:104C70002000083095E007239D4300D58EE0A9422F
:104C800000D98BE000F082FAFC235B009D4200D249
:104C9000A1E1680A00D18BE0042800D974E138232F
:104CA0009846A80980443930C100B24F79184C6841
:104CB0000839A1420ED003239C4604E0002ACBDA37
:104CC000E468A14206D06246636893435A1B0F2AE8
:104CD000F4DD40463A003C690832944200D178E065
:104CE00003236168994389460B00491B0F2900DDA6
:104CF00075E17A613A610029B2DA80229200914529
:104D000000D310E15909DA0801238B40D2007968F9
:104D1000D2190B4391687B60E260A1609460CC6023
:104D2000012182109140994259D80B4205D10322AA
:104D30009043490004300B42FBD003239846C30044
:104D40009946B944CC4682466346DC68A44507D1FF
:104D500026E1002A00DB2FE1E468A44500D11FE131
:104D60004246636893435A1B0F2AF2DD01208046B6
:104D7000611905436560A068E5680837C560A860EB
:104D800040461043F960B9604860CF6030008F60E2
:104D9000E25000F0FDF92000083002E00C23002072
:104DA000336003B0F0BCBB46B246A946A046F0BD96
:104DB00080213F2340209846890076E7DC68023056
:104DC000A34200D044E73A003C690832944200D044
:104DD00086E701217B68821091409942A5D903237F
:104DE000BC6862689A439146954203D8531B0F2BC7
:104DF00000DD8AE023004B445F4A01935F4B9346FA
:104E00009A4612681B68EB18013200D136E15C4A01
:104E1000944663441B0B1B0300933000009900F081
:104E2000B9F903008046013300D1F3E0019B8342CE
:104E300000D9EDE05246009852680300944651466E
:104E400063444B6001991A00414500D14BE15B4638
:104E50001B68013300D150E1434601995B1A9A184F
:104E600053465A600723424641461A40019219426E
:104E700000D10DE108239846881A424B00998044DE
:104E800041449B1A5B1A1B051B0D00913000190051
:104E90009B4600F07FF9431C00D14AE14346C01A0B
:104EA00003005B440093534652465B6801215B4418
:104EB000536042464046BA60009A0A434260BC4290
:104EC00000D11EE14A460F2A00D81CE107200C3A07
:104ED000824360680140052011436160A118486069
:104EE00088600F2A00D92FE1424644465268514655
:104EF000C96A994201D25146CB625146096B994227
:104F000000D389E051460B6386E001222900134358
:104F10001143651961603000BD606B6000F038F9C5
:104F2000200008303DE75A0A042A6BD9142A00D918
:104F3000BEE011005C325B31D20008235B429C462C
:104F4000BA18944463469A6803239846944500D15E
:104F500097E0434651689943494502D99268944580
:104F6000F7D1D3689C467B686146A260E1608C60A3
:104F7000D460D5E6A0090020980900204C1100203B
:104F80000F10000008100000142852D9542800D92E
:104F900096E06E239846280B80446F30C10084E66B
:104FA00008239B46073BDC449B46DA444346524673
:104FB000134200D0C8E64CE00122E31859683000E3
:104FC0000A435A60E368A268D3609A6000F0E0F890
:104FD00020000830E5E62B00E808083330E601231E
:104FE00060191D43656078613861C26082601A0093
:104FF0004B460A4342603000E15000F0C9F82000FF
:105000000830CEE69A09110039323831D20094E7DF
:10501000BC4260D0BC68626803239A43531B95422C
:1050200002D80F2B00DD70E7300000F0B1F800204F
:10503000B7E65B23984680445C30C10035E6082320
:105040005B429C46E1444B469B6801384B4500D08F
:1050500097E043460342F2D17B688B437B60490073
:10506000994200D9BBE6002904D1B8E6042294464F
:105070004900E2440B42F9D0504660E610330093F9
:10508000CBE68910023B8B4079680B437B606BE772
:10509000009B300043445B421B051B0D19009B46DF
:1050A00000F078F8431C00D0F8E600239B46FAE6AF
:1050B000542A2AD81A0B11006F326E31D2003CE705
:1050C000AA235B0098422AD8DD3B9846E80B80442F
:1050D0007830C100E9E553465B68009A9C46534628
:1050E00062445A60B3E6090500D0B0E60200BC682D
:1050F0004A4401310A436260F9E65B4642461A605F
:10510000B0E64446F3E641608EE7AA2149008A42B0
:1051100024D8DA0B110078327731D2000DE71A4B20
:10512000984224D87C239846A80C80447D30C10046
:10513000BBE5009A019B94464246083B63449B1A98
:10514000009300239B46AEE621003000083100F0BA
:10515000AFF85346BC685B686268C8E60A498A4291
:105160000BD89A0C11007D327C31D200E5E6FE218D
:105170007E237F209846890097E5FE227E219200BB
:10518000DBE67B686BE7C046540500007047C0460D
:105190007047C046002370B5064D040008002B6020
:1051A000FCF784FF431C00D070BD2B68002BFBD0A4
:1051B0002360F9E78011002010B583070AD00300AF
:1051C000032102E001330B4205D01A78002AF9D1FD
:1051D000181A10BD030019680C4A0D4C8A188A432E
:1051E00022420FD15968094A04338A188A4322425D
:1051F00008D15968054A04338A188A432242F1D0FB
:1052000000E001331A78002AFBD1E1E7FFFEFEFE41
:1052100080808080F8B50C000500FFF7B7FF204FB5
:10522000BB685E6803239E431E4B341B9C4664444C
:10523000240B013C113324039C4207DB002128008E
:10524000FFF7A8FFBB689B19984204D02800FFF71E
:105250009FFF0020F8BD28006142FFF79BFF431C21
:105260000DD00122BB68361B16435E600E4B280032
:105270001A68141B1C60FFF78BFF0120EAE700216E
:105280002800FFF787FFBA68831A0F2BDEDD074976
:105290000968401A0449086001210B435360D5E7AF
:1052A000A0090020EF0F00005011002098090020F5
:1052B000F0B5C64605000C0000B500294FD0FFF739
:1052C00065FF210008394C68012622000320B24303
:1052D0008F187B688343624898468368BB426AD0D4
:1052E00043467B6026421ED108239C460C688444BA
:1052F000091B12198C6864454FD0CB68E3609C6031
:105300004346FC186468344211D1BB68554C424492
:10531000A34200D17EE0FC68DC60A360012313435C
:105320004B608A5006E0FC1864683442EDD01643A6
:105330004E603A6080239B009A4213D25409D308EE
:105340000122A2404468DB002243426018188368AF
:10535000C8608B608160D9602800FFF719FF80BCAE
:10536000B846F0BD530A042B3ED8940926003934C0
:105370003836E40004192368083C03279C4242D0D5
:105380005868B843904202D99B689C42F8D1DC68C7
:10539000CC608B60A160D960DEE74346F8184068B6
:1053A000304257D1FB68B86842441643C3609860E6
:1053B0004E608A50D0E713004344264206D10A6863
:1053C000891A8C689B18CA68E260946001221A43AB
:1053D0004A60254A816012689A42BDD8234B280052
:1053E0001968FFF717FFB7E7142B07D9542B1AD802
:1053F000140B26006F346E36E400BBE71E005C33EE
:105400005B36DC00B6E70122B610B2404668324394
:105410004260BDE7D9609960CB608B600123134384
:105420004B608A5098E7AA246400A34205D8D40BA5
:10543000260078347736E4009CE70D4CA34205D86B
:10544000940C26007D347C36E40093E7FE247E260F
:10545000A4008FE7330013434B603A607CE7C046FB
:10546000A0090020A80900209C0900204C11002060
:1054700054050000F8B5C04601B40248844601BC9A
:10548000604700BF5D01002001B40248844601BCB2
:10549000604700BF8501002001B40248844601BC7A
:1054A000604700BF8501002001B40248844601BC6A
:0854B000604700BFC1000020AD
:1054B800253032783A253032783A25303278000073
:1054C800080052501ABD37004861726477617265EE
:1054D80020616C61726D20256420616C7265616465
:1054E8007920636C61696D65640000000A2A2A2AC4
:1054F8002050414E4943202A2A2A0A000A00000067
:10550800486172642061737365727400666E692BFA
:1055180000000000666E69006E616E00666E692D9F
:1055280000000000A62C00105C2C00105C2C001061
:105538009E2C00105C2C00105C2C00105C2C0010C1
:105548005C2C00105C2C00105C2C00105C2C0010F3
:10555800962C00105C2C0010902C00105C2C001075
:105568005C2C0010882C0010FC2D0010B82C0010AA
:10557800F02D0010B82C0010DE2D0010B82C0010F3
:10558800B82C0010B82C0010B82C0010B82C001043
:10559800B82C0010B82C0010AE2C0010B82C00103D
:1055A800B82C0010B82C0010B82C0010B82C001023
:1055B800AE2C00103E2E0010002D0010002D001003
:1055C800002D0010002D0010002D0010002D0010DF
:1055D800002D0010002D0010002D0010002D0010CF
:1055E800002D0010002D0010002D0010002D0010BF
:1055F800002D0010002D0010002D0010002D0010AF
:10560800002D0010002D0010002D0010002D00109E
:10561800002D0010002D0010002D0010002D00108E
:10562800002D0010002D0010002D0010002D00107E
:10563800002D0010A02D00100C2E0010A02D001021
:10564800002D0010002D0010002D0010002D00105E
:10565800002D0010002D0010002D0010002D00104E
:10566800002D0010002D0010002D0010002D00103E
:10567800002D0010002D0010002D0010002D00102E
:1056880058300010002D0010002D0010002D0010C3
:10569800002D0010002D0010002D0010002D00100E
:1056A800002D0010002D001058300010522E001050
:1056B80058300010A02D00100C2E0010A02D001046
:1056C800000000000000F03F00000000000024403F
:1056D80000000000000059400000000000408F401A
:1056E800000000000088C34000000000006AF84085
:1056F8000000000080842E4100000000D0126341A9
:105708000000000084D797410000000065CDCD411E
:105718004F7574206F66206D656D6F72790000009B
:1057280052656C6561736500626F6F74325F7732C2
:105738003571303830000000312E352E3100000030
:105748007069636F00000000636C6F636B0000009A
:105758004175672032312032303233000600525012
:10576800D3F075422857001006005250E182887F16
:105778003057001006005250BBFF3CB64857001087
:105788000D0A00005541525420737464696E00007C
:1057980055415254207374646F75740055415254C6
:1057A80020737464696E202F207374646F7574009D
:1057B8000600525053B4F4A1A457001008005250E8
:0457C800920000004B
:1057CC00C854001064570010705700108802001065
:1057DC007C57001094020010A0020010AC020010C4
:0857EC00C4570010B85700106B
:1057F400F0B5C646150000B504001E000268EFF3BC
:10580400108172B61368002BFCD0BFF35F8F0423A2
:10581400E356002B2DDB2268BFF35F8F002010605E
:1058240081F31088D0221206127852B290469A421E
:1058340003D1002080BCB846F0BD00270BE02368EC
:10584400BFF35F8F1F6081F310882800310000F0E0
:1058540033F80028EDD12268EFF3108172B6136893
:10586400002BFCD0BFF35F8F23797F2BE7D943460E
:1058740002E0D0231B061B6823712368BFF35F8FEC
:1058840000221A6081F310880120D3E70268EFF345
:10589400108172B61368002BFCD0BFF35F8FFF2317
:1058A40003710368BFF35F8F00221A6081F31088CD
:1058B40040BF70477047C04601B40248844601BCEB
:1058C400604700BFFD120010005059170405032162
:1058D400000000000000000000005F000000000065
:1058E4000007000700000000147F147F140000006C
:1058F400242A7F2A12000000231308646200000097
:105904003649552250000000000503000000000045
:10591400001C2241000000000041221C0000000085
:10592400082A1C2A0800000008083E080800000095
:1059340000503000000000000808080808000000BB
:105944000060600000000000201008040200000055
:105954003E5149453E00000000427F4000000000E7
:1059640042615149460000002141454B310000008D
:105974001814127F10000000274545453900000027
:105984003C4A494930000000017109050300000048
:105994003649494936000000064949291E000000DD
:1059A40000363600000000000056360000000000FB
:1059B4000008142241000000141414141400000000
:1059C40041221408000000000201510906000000F1
:1059D400324979413E0000007E1111117E00000021
:1059E4007F494949360000003E4141412200000000
:1059F4007F4141221C0000007F49494941000000C9
:105A04007F090901010000003E41415132000000BC
:105A14007F0808087F00000000417F41000000006B
:105A24002040413F010000007F0814224100000093
:105A34007F404040400000007F0204027F000000DD
:105A44007F0408107F0000003E4141413E000000F9
:105A54007F090909060000003E4151215E00000053
:105A64007F091929460000004649494931000000D0
:105A740001017F01010000003F4040403F00000061
:105A84001F2040201F0000007F2018207F000000FE
:105A94006314081463000000030478040300000086
:105AA400615149454300000000007F41410000006E
:105AB400020408102000000041417F0000000000A3
:105AC4000402010204000000404040404000000085
